:020000040800F2
:10000000F007002001010008BD5300082D40000842
:10001000B9530008B50D000849550008000000005C
:10002000000000000000000000000000C5530008B0
:10003000DD0D000800000000C1530008C95300088E
:100040001B0100081B0100081B0100081B01000820
:100050001B0100081B0100081B0100081B01000810
:100060001B0100081B0100081B0100081B01000800
:10007000B90D0008C50D00081B0100081B01000890
:10008000D10D00081B0100081B0100081B0100081E
:100090001B0100081B0100081B010008E10D0008FE
:1000A000D1530008F5530008E9530008DD53000858
:1000B000015400081B0100080D5400083D400008D1
:1000C000314000081B0100081B0100081B0100084B
:1000D0001B01000825550008315500083D55000852
:1000E0001B0100081B0100081B010008DFF80CD0F1
:1000F00000F0B2FC0048004709620008F007002049
:100100000648804706480047FEE7FEE7FEE7FEE7B1
:10011000FEE7FEE7FEE7FEE7FEE7FEE7CD53000859
:10012000ED0000082DE9F0410024061B254671F181
:10013000000605DA01240027D0EB070067EB010178
:10014000161E73F1000605DA0027D2EB070201251F
:1001500067EB030300F03AFB86460E4617469C46C3
:10016000AC4204D00025D0EB050E65EB010624B1AE
:100170000020D2EB000760EB030C704631463A4694
:100180006346BDE8F08130B504460020034600E038
:100190005B1C934203D2E05CCD5C401BF8D030BDC9
:1001A000F0B480EA0102D40F4200B2EB410F02D258
:1001B0000246084611464A0042D0C30DDDB2C1F3E3
:1001C000C752AD1A202D35DAC1F3160141F40002F1
:1001D00004B15242C5F1200602FA06F12A41104448
:1001E000B3EBD05F23D0C4B1012DA0EBC35009DC29
:1001F000F0BC4FF0004202EAC352DBB200F500004F
:1002000000F03FBB400000F1807000EBC350A0F154
:10021000807040EAD170490009E0490841EAC071A4
:10022000A0EBC35000F50000400800EBC350F0BC49
:1002300000F01EBB6142012202EB4101001BF6E708
:10024000F0BC704781F00041AAE780F00040A7E7CA
:1002500080EA010210B502F00043400022D04A00BB
:100260001FD0010E01EB1261C0F35600C2F356021B
:1002700040F4000042F40002A0FB022000047F3999
:10028000140400D0401C50EA124001D44000491E22
:10029000C2B20C0604EBD010401C4008802A02D0E9
:1002A00003E0002010BD20F00100002900DA00204A
:1002B000184310BD30B480EA010202F0004530F06E
:1002C000004221F0004013D090B1C30DD40DC2F311
:1002D0001601C0F31600E41A41F4000140F40002D4
:1002E0007D34914201D3641C00E04900002C02DA05
:1002F00030BC002070474FF400000023914201D32E
:10030000891A034340084FEA4101F7D151B19142A4
:1003100002D14FF0004105E002D24FF0010101E0AF
:100320006FF0010103EBC450284430BC00F0A0BAC8
:100330002DE9FE4F804681EA0300C00F0C46009075
:1003400021F0004123F00045B8EB0200A94105D29D
:100350004046214690461C460B46024623F000408C
:10036000104347D0270DC7F30A00C3F30A51029088
:10037000401A019040286BDAC3F3130040F4801B4D
:100380000098924620B10023D2EB030A63EB0B0BDB
:1003900001985946C0F14002504600F048FA06461E
:1003A0000D4650465946019A00F050FA10EB0800ED
:1003B0006141002487EA115284EAE7731A4340D06E
:1003C000009A62B3019A012A4FEA075215DC001B1A
:1003D00061EB02014FF0004202EA0752CDE9004210
:1003E000001C41F5801132462B4600F087FA03B01D
:1003F000BDE8F08F40462146F9E7001B61EB0201A2
:10040000001C41F5801300185B412018A2F500176D
:1004100047EB030140EAD570B6196D4111E06D0854
:100420004FEA360645EAC0754FEA0752001B61EBFA
:100430000201001C41F5801149084FEA3000001903
:10044000514132462B4603B0BDE8F04F00F047BAA9
:100450000098012240000023D0EB020263EBE0731E
:10046000009821464FEAE074B8EB000061EB04010C
:10047000E9E783F000435BE781F0004158E72DE9AD
:10048000FE4F81EA030404F0004421F0004100948F
:100490004FF0000B23F0004350EA01045ED052EA13
:1004A00003045BD0C3F30A54C1F30A552C44A4F2ED
:1004B000F3340194A0FB0254C1F3130141F4801101
:1004C000C3F3130343F4801301FB024400FB034E08
:1004D000840A970A44EA815447EA8357A4FB0768D1
:1004E00002958D0A05FB07854FEA932C04FB0C54FB
:1004F0002705029D4FEA065847EA1637B5EB08056F
:100500006EEB070C870E920E47EA811742EA8312C0
:10051000A7FB0201B6EB0B0164EB00042B0D43EAD1
:100520000C335E1844EB1C50DA465146E7FB0201DF
:10053000C5F313044FEA0B3343EA14534FEA043272
:10054000019C43EA0603A4F10C040294009CCDE94B
:1005500000B400F0D3F903B0BDE8F08F00200146ED
:10056000F9E72DE9F04D81EA030404F0004B21F096
:10057000004514464FF0000A23F0004150EA0502FE
:1005800020D054EA01021DD0C5F30A570246C5F334
:100590001303C1F31300C1F30A5640F4801543F46A
:1005A0008013A7EB0608101BD64608F2FD3873EB44
:1005B000050002D308F1010801E092185B41B8F18F
:1005C000000F03DA00200146BDE8F08D00204FF453
:1005D0008011064684460EE0171B73EB050705D312
:1005E000121B63EB050306434CEA010C49084FEA72
:1005F000300092185B4150EA0107EDD152EA030046
:1006000012D082EA040083EA0501084305D0101BDA
:10061000AB4106D20122002306E000224FF0004346
:1006200002E06FF0010253101AEB06004CEB085188
:1006300010EB0A0041EB0B01BDE8F04D00F04FB9A3
:10064000002801DBC0F10040002901DBC1F10041BD
:10065000814201D80120704700207047002801DB4B
:10066000C0F10040002901DBC1F10041814201D20B
:100670000120704700207047002801DBC0F10040D6
:10068000002901DBC1F10041814201D30120704703
:1006900000207047002801DBC0F10040002901DB89
:1006A000C1F10041814201D901207047002070470B
:1006B000002801DBC0F10040002901DBC1F100414D
:1006C000814201D10120704700207047C10F80EAAC
:1006D000E0700844CA079623002100F0D2B89623A0
:1006E0000022114600F0CDB800F0004220F000409A
:1006F000C10DC0F3160040F400007F2901DA00208C
:100700007047962903DCC1F19601C84001E0963993
:100710008840002AF4D04042704720F00040C10DCC
:10072000C0F3160040F400007F2901DA0020704772
:10073000962903DCC1F19601C8407047963988407C
:10074000704700F0004230F000400AD0C10D01F5C2
:100750006071C0F3160042EA0151C208400711431C
:10076000704700200146704701F0004330B421F08B
:10077000004150EA010206D00A0DA2F56072C1F3F1
:100780001301002A02DC30BC00207047440F44EA09
:10079000C104C100E01830BC00EBC25000F068B8E2
:1007A00030B50B46014600202022012409E021FA41
:1007B00002F59D4205D303FA02F5491B04FA02F53E
:1007C0002844151EA2F10102F1DC30BD2DE9F05FD5
:1007D0000546002092469B468846064681464024B0
:1007E0001BE0284641464746224600F04DF9534655
:1007F0005A46C01A914110D311461846224600F0BD
:1008000016F82D1A67EB01084F46224601200021F9
:1008100000F00DF817EB00094E41201EA4F1010471
:10082000DFDC484631462A464346BDE8F09F202A91
:1008300004DB203A00FA02F1002070479140C2F137
:10084000200320FA03F3194390407047202A06DB67
:10085000CB17203A41FA02F043EAE07306E041FA8E
:1008600002F3D040C2F1200291400843194670477C
:100870000029A8BF7047401C490008BF20F00100B4
:10088000704710B4B0FA80FC00FA0CF050EA010492
:1008900004BF10BC704749B1CCF1200421FA04F424
:1008A00011FA0CF118BF012121430843A3EB0C01FD
:1008B000CB1D4FEA00614FEA102042BF002010BC60
:1008C000704700EBC35010440029A4BF10BC704710
:1008D000401C490008BF20F0010010BC704710B553
:1008E000141E73F1000408DA401C41F10001921853
:1008F0005B411A4301D120F0010010BD2DE9F04DFC
:1009000092469B4611B1B1FA81F202E0B0FA80F250
:1009100020329046FFF78BFF04460F4640EA0A005C
:1009200041EA0B0153465A46084313D0114653EA95
:10093000010019D0C8F14002504600F0A5F8054664
:100940000E46504659464246FFF771FF084305D010
:10095000012004E020463946BDE8F08D0020054323
:1009600046EAE0762C4337430A986305E40AA0EB95
:1009700008000022FD0A44EA47540A3002D500204C
:100980000146E9E7010510196941DDE9084500194B
:100990006941BDE8F04DA2E770B521F00043034383
:1009A0000CD0C1F30A550024D5EB040564EB040315
:1009B000D617AD1AB34102DB0020014670BD2018E6
:1009C00041EB025170BDC1F30A52C1F3130140F271
:1009D000FF3341F480119A4202DA00200146704749
:1009E00040F233439A42A2F2334202DC524200F018
:1009F0004BB8FFF71CBF000030B5041E71F10004B6
:100A000004DB4FF00044404264EB0101141E73F11B
:100A1000000405DB1C464FF00043524263EB040325
:100A20008B4208BF824230BD30B5041E71F1000414
:100A300004DB4FF00044404264EB0101141E73F1EB
:100A4000000405DB1C464FF00043524263EB0403F5
:100A5000994208BF904230BD1CB509480090094832
:100A600001900546009C06E0E06840F0010394E830
:100A7000070098471034AC42F6D3FFF73BFB000069
:100A80002C9D00084C9D0008202A04DB203A21FA06
:100A900002F00021704721FA02F3D040C2F1200297
:100AA00091400843194670472DE9F04D00231A463E
:100AB0001B1A8A4103DB00200146BDE8F08DC1F31B
:100AC0000A52C1F3130141F480154FF0000BD10716
:100AD00002D100186D41521E0027044640F2FF115A
:100AE000384601EB620A3E468046024600204FF43B
:100AF0008011FFF7C9FFC2197141BB1846EB010015
:100B0000B4EB030C75EB000C04D3E41A65EB0005A1
:100B100017460E46241908F101006D41804634281D
:100B2000E3DDF91946EB0600091BA84103D24FF09B
:100B3000FF32134601E0002213461BEB070046EB91
:100B40000A51BDE8F04DFFF7CABE00002DE9F04F95
:100B50008FB00D460021C4F2B4318346FFF7A8FDE3
:100B600040F27008C2F20008C8B9D8F8180098F826
:100B7000004020F00040FFF7D0FD02460120214652
:100B800004F04EF8D8F8180098F8004020F0004023
:100B9000FFF7C3FD02460220214604F041F8D8F8D1
:100BA0000490D8F80C4028465946C8F808900E958D
:100BB000FFF748FB00210746C8F8040020F000407A
:100BC000C4F22011FFF74AFD054638462146FFF7DB
:100BD000E7FA064640F20800C2F20000002D08BF06
:100BE0002E46D0F80CA026F0004051464446C8F8E6
:100BF0000C60FFF725FD88B930460021FFF720FD86
:100C0000002804BFC4F80CA0564630460021FFF768
:100C100033FD002804BF8AF00046E66038464946A6
:100C2000FFF710FB40F20801C2F200010546C8F8C8
:100C30001000D1E90040D1F808903146FFF708FBD9
:100C4000064620463946FFF703FB3146FFF7A8FA70
:100C50000446484629464546FFF7FAFA2146FFF77B
:100C60009FFA00210746C8F81800FFF721FD38B9A0
:100C700038460021FFF70EFD002818BF012028701C
:100C800027F000405146FFF7DBFC88B938460021C9
:100C9000FFF7F2FC002804BF8AF00047AF61384636
:100CA0000021FFF7CDFC002804BFC5F818A0574667
:100CB00040F20800C2F20000046927F0004021461B
:100CC000FFF7DAFC80B938460021FFF7D5FC002891
:100CD00004BF84F00047AF6138460021FFF7B0FC45
:100CE000002804BFAC6127465846FFF72AFDCDE92E
:100CF0000C102C7827F00040FFF70FFD0246012072
:100D0000214603F08DFFA8692C7820F00040FFF702
:100D100004FD02460220214603F082FF0E98FFF7F1
:100D200010FD0B90A8696C68CDF838B0D5E903AB1D
:100D30000A91FFF706FD804620460E46FFF701FDAB
:100D4000044650468946FFF7FCFC074640F208007F
:100D5000C2F200008068AA460D465946FFF778FAAD
:100D6000FFF7EFFCCDE908010B98DDE90C320090AC
:100D70000A98CDE90364CDE9010806A0CDE90597FD
:100D8000079507F0A9F80E98CAF814000FB0BDE84F
:100D9000F08F00BF252E32662C252E32662C252E94
:100DA00032662C252E32662C252E32662C252E32CC
:100DB000660D0A00FEE7000040F25C10C2F200007F
:100DC00000F038BA40F21810C2F2000000F032BA57
:100DD00040F2D400C2F2000000F02CBA70470000CC
:100DE000202000F04FBB0000EFF3108072B600BF70
:100DF000FEE7000010B581B00022009290F8242098
:100E0000012A03D10221084601B010BD4B6801221E
:100E1000062B80F8242033D8D0F800C003EB8303DE
:100E20005A1F1F23DCF834E003FA02F40B682EEAA1
:100E3000040403FA02F22243CCF83420092B03EB1A
:100E4000430249D9DCF80CE01E3A07248968944033
:100E50002EEA0404914023F001022143102ACCF829
:100E60000C1043D142F20841C4F20101A1F1080281
:100E7000944543D0816A41F020018162012136E02E
:100E8000D0F800C00C2B03EB830213D8233A1F23A6
:100E9000DCF830E003FA02F40B682EEA040403FAEB
:100EA00002F22243CCF83020092B03EB4302C9D8CD
:100EB00012E000BF413A1F23DCF82CE003FA02F4F1
:100EC0000B682EEA040403FA02F22243CCF82C2029
:100ED000092B03EB4302B5D8DCF8103007248968EE
:100EE0009440A34391401943CCF8101000210022F4
:100EF00080F82420084601B010BD00BF0A68120225
:100F0000F4D40A68102B42F400020A60EED140F2D9
:100F10005C01C2F2000109684DF68362C4F21B3223
:100F2000A1FB0212910C01EB810149000091009993
:100F30000029DBD000990139009100990029D5D012
:100F400000990139009100990029CFD00099013909
:100F5000009100990029C9D00099013900910099A8
:100F600000294FF00001E5D1C1E70000002804BFCF
:100F700001207047B0B50446806A28B121688868AE
:100F8000C0070CD115E000BF0020E06284F8240007
:100F9000204600F097F821688868C00709D0886863
:100FA00020F00100886000F08DFB21688A68D2077C
:100FB00026D1A06AC0063AD4A06A41F20212904338
:100FC0000230A062E069D4E9013240EA030C531E0A
:100FD000B3FA83F35D091346B2F5807F18BF2B0285
:100FE000207D257B01284CEA45002CD135B3A56A2C
:100FF00045F02005A562E56A45F00105E56222E0BD
:10100000054602E08868C007D3D000F05BFB401BB8
:1010100021680328F6D38868C007F3D0A06A40F09F
:101020001000A062E06A40F00100E062A06AA06ADD
:1010300040F01000A0620120B0BD00BFA56903EB25
:101040004533A3F5C0534D68B2F5807F25F469455B
:1010500043EA05034B608B684FF2FD75CFF6E175EF
:1010600003EA050343EA00038B6001D0012A07D19C
:1010700022690023CFF6F07303EB025201E000BFB8
:101080000022CB6A23F470031A43CA62896840F6CF
:10109000FE62CFF61F721140814207D10020E0624C
:1010A000A16A012262F30101A162B0BDA06A40F011
:1010B000100020F00200A062E06A40F00100E0624F
:1010C0000120B0BD80B586B0014640F60000C4F2F4
:1010D0000100096800F5E05291424FF00001CDE9AE
:1010E0000411CDE9021101D006B080BD41F2180112
:1010F000C4F202010A6842F400720A600A6802F44B
:1011000000720192019A0A6842F004020A600968BA
:1011100001F0040101910199012102910321039140
:1011200002A900F0BBF906B080BD0000014690F8AE
:101130002100022816D10868D1E90FC3026822F005
:101140000E020260026822F001020260012000FA31
:1011500003F2CCF8042081F821000020002281F85D
:1011600020207047042088630120002281F820207D
:101170007047000090F82110022923D1026840F244
:10118000040C1168C4F2020C21F00E011160136806
:101190002F21C4F202018A4223F00103136015DDFE
:1011A0003023C4F202039A421CD04423C4F2020347
:1011B0009A421BD05823C4F202039A421CD14FF426
:1011C000803321E004218163012070470823C4F2A9
:1011D00002039A420ED01C23C4F202039A420BD19E
:1011E000102311E04FF480730EE000BF4FF48053E2
:1011F0000AE000BF012307E00CF168014FF08073A3
:101200008A4208BF4FF480130121CCF8003080F8E7
:101210002110416B0022002980F8202004BF00200B
:10122000704780B58847002080BD000090F82100FD
:101230007047000010B5D0E90FCE0168DCF800302F
:101240000A6823FA0EF35C072AD512F0040427D0AB
:101250000A68920603D40A6822F004020A602F2268
:10126000C4F20202914240F20402C4F202025BDDC7
:101270003023C4F20203994272D04423C4F2020321
:10128000994273D05823C4F20203994240F07A8005
:101290004FF480231360C16A002940F098806FE00A
:1012A0009C0727D512F0020424D00A68920606D4BF
:1012B0000A6822F00A020A60012280F821202F2207
:1012C000C4F20202914240F20402C4F202023BDD87
:1012D0003023C4F20203994260D04423C4F20203D3
:1012E00099425FD05823C4F20203994260D14FF46F
:1012F000003365E01B0743D512F0080208BF10BD9C
:101300000A6822F00E020A60012101FA0EF2CCF8FE
:101310000420816380F82110016B0022002980F8ED
:10132000202054D12CE000BF0823C4F202039942CC
:1013300022D01C23C4F20203994223D1402313601C
:10134000C16A002943D11BE00823C4F20203994279
:101350002CD01C23C4F20203994229D120232FE070
:101360004FF480631360C16A89BB09E04FF4804386
:101370001360C16A59BB03E004231360C16A31BB27
:1013800010BD00BF02F168044FF08063A14208BFA6
:101390004FF480031360C16AC9B9F1E74FF40073D9
:1013A0000EE000BF4FF400530AE000BF022307E045
:1013B00002F168044FF00073A14208BF4FF400131C
:1013C0001360816A0022002980F82020D8D0BDE86F
:1013D00010400847014600284FF0010008BF704741
:1013E0002DE9F043D1F800C04FF6F873CBF6FD734A
:1013F0004CF6CD426344CCF6CC42A3FB02236FF003
:10140000030202EA93020023C4F2020301F10C0872
:10141000C1E90F320222D1E9019E98E8F00181F87A
:101420002120DCF8002043F6F0739A4342EA0902D7
:1014300042EA0E0222432A4332433A4342EA080276
:10144000CCF8002000228A6381F8210081F8202056
:101450000020BDE8F0437047B0B5044600F032F913
:10146000054640F21C00C2F200000078611C18BF63
:10147000044400BF00F026F9401BA042FAD3B0BDDF
:101480007047000040F21441C4F201010A680242B0
:1014900014BF08607047FFF7F3BF00002DE9F04F5D
:1014A00082B00E68002E00F0FD8041F20042C4F2CE
:1014B0000102042340F2004E904208BF03234FF67E
:1014C000FF7CC4F2010E009300240123C1F2100C32
:1014D0004FF0000A4FF000094BE000BF41F200025C
:1014E000C4F20102009F904208BF022704F00C03DF
:1014F0000F229A402BEA020207FA03F34FEA9A05F9
:101500001A4346F825204E6840F20C45F202DEF8F8
:10151000082054BF22EA080242EA0802C4F2010588
:10152000CEF808202A68B30254BF22EA080242EA31
:1015300008022A60B303DEF8042054BF22EA08023E
:1015400042EA0802F303CEF80420DEF800204FF050
:10155000010354BF22EA080242EA0802CEF8002042
:101560000E680AF1010A36FA0AF204F1040400F0E6
:10157000998003FA0AFB16EA0B08F1D04E6866451B
:1015800012DC122E56D8DFE806F0350B4D495555C2
:10159000555555555555555555555545510000BF4F
:1015A000D1F80C9046E000BF4FF6FF72C1F2210265
:1015B00096420FDC0022C1F2110296421AD000229C
:1015C000C1F21202964215D00022C1F221029642C7
:1015D00010D02FE00022C1F2220296420AD000224F
:1015E000C1F23102964205D00022C1F23202964287
:1015F00020D100BF8A684AB1012A14BFC0F814B0D4
:10160000C0F810B04FF0080914E000BF4FF0040913
:1016100010E000BFCA6802F104090BE04FF00009B6
:1016200008E000BFCA6802F1080903E0CA6802F1D5
:101630000C0900BF02462646B8F5807F24BF04325D
:10164000203E17680F25B54027EA050509FA06F67A
:1016500035431560CA79D2067FF582AF41F218038F
:10166000C4F202031A68AEF57E7642F001021A60F7
:101670001A6802F001020192019A2AF0030256F858
:1016800002B040F60002C4F20102904208D040F6D7
:101690000042C4F2010290427FF420AF012725E707
:1016A000002723E702B0BDE8F08F00008068084003
:1016B00018BF012070470000002A08BF090401611B
:1016C0007047000040F2EC30C2F200000068704742
:1016D0007047000070470000F0B581B00446006814
:1016E00000254769426894F83E1002F48076FA05B6
:1016F00008D53EB16FF4807242610268012542F460
:1017000000420260BA0505D5002E1EBF02356FF4F7
:10171000007242617A0516D5AEB1628D94F83D3003
:10172000D4F830C0202908BF002A23D06FF480628B
:10173000402905F10405426101D0102903D1016857
:1017400041F400710160380506D52EB120680835D6
:101750006FF40061416100E055B1206C40EA050181
:101760002046216401B0BDE8F04002F0FFBC00BF9C
:1017700001B0F0BD03F0F701212909D0282B08BFE3
:10178000BCF1210F04D06FF4806141610435DAE7C8
:1017900094F83D10E26AB2F1080318BF0123203A21
:1017A00018BF0122134208BF282921D0212939D18D
:1017B0000021CFF6FF71E16221212163202184F80D
:1017C0003D10002184F83E10426822F4E06242603D
:1017D0006FF480624261026822F4806202604269B2
:1017E000120648BF0161204600F056FCABE700BF7F
:1017F0000021CFF6FF71E162416821F4E0614160B0
:101800006FF480614161016821F480610160002012
:101810002021206384F83D1084F83E00204600F02B
:10182000DDFB90E76FF4806141618CE7F0B581B03A
:1018300007687968C26A90F83E5090F83DE0402D04
:1018400001D0102D34D1BB697C69E60718D1B2F103
:101850002A4F00F06782B2F52A0F00F06382220758
:1018600001F4007240F10681002A00F00381416B0F
:10187000426C0029D2B23A6140F0B080B0E000BFC3
:101880008A0543D44FF0010C7A685B076ED41205C9
:1018900000F1488204F04402402A40F0598111F4DA
:1018A000806100F0558101B0BDE8F04002F0A0BDBC
:1018B000026C01F40073002A0CBFBC6900247D692E
:1018C000AA0729D543B3016C002918BFBC6990F859
:1018D0003D1001F02801282940F0C08079680122DC
:1018E00021F48061796004F0040182EA910122060A
:1018F0004FF0180258BF0C22825A002380F83C3067
:1019000001B0BDE8F040FFF7E5BE00BFC16AB1F528
:101910002A0F3DD1012140E0EA066FD5002B6DD0A2
:1019200090F83D50796821F4E061796000210091E0
:1019300079690091396841F001013960009939688D
:1019400021F4806139607968090540F1798105F0F9
:10195000F7010446222940F0498154F8381F0A68EB
:10196000526824F80E2C34F80E2C47E1120500F1D1
:10197000D98104F08402802A40F0F88011F480615B
:1019800000F0F48001B0BDE8F04002F017BE00BFE7
:10199000C16AB1F12A4F01D10821C16290F83E100D
:1019A00040290BD1016D406C002900F0FE0018BFEA
:1019B00040F00100386101B0F0BD00BF0169B1F530
:1019C000804F40F0898090F83D10426C212902F050
:1019D000FE0218BF01323A61416B09B1896A39B917
:1019E000806B002800F09E81806A002800F09A81B8
:1019F000786840F40060786001B0F0BD0EF0F70246
:101A0000212A79D105F08402802A40F0C18011F4A6
:101A1000806100F0BD8090F83D10428D002A00F0FA
:101A20008181426A12F8013B3B614262428D013A78
:101A30004285428D002A08BF292940F073817968C8
:101A400021F48061796021210163282180F83D1013
:101A500001B0BDE8F04000F01FBB00BF00210091C5
:101A60007A690092BA690092009A80F83C1001B03D
:101A7000F0BD00BF4FF0010CA6078CEA522C7FF599
:101A800003AF002A3FF400AF90F83E20C16A036B19
:101A900090F83D60222E40F09F80066D002E08BF1A
:101AA000402A00F09980026D002A40F03D810269D1
:101AB000B2F5404F40F038810021009179690091E2
:101AC000B96900910099396841F480713960016DFC
:101AD0000131016501B0F0BD016D002900F0008108
:101AE000016D012940F01E81406C062101EAD010F1
:101AF000F130386101B0F0BD05F04402402A57D101
:101B000011F4806154D090F83D10428D002A00F00D
:101B100009813A69436A1A70426A01324262428D0F
:101B2000013A4285428D002A08BF2A2940F0FA80F6
:101B300001684A6822F480624A60222101632821F8
:101B400080F83D1001B0BDE8F04000F0A3BA00BF3E
:101B500004F00401012282EA910151EA0C0140F0F3
:101B6000E18001B0BDE8F04002F0C6BB04F0040122
:101B7000012282EA910151EA0C0140F0D380BEF1CA
:101B8000210F40F0C78001B0BDE8F04002F0D4BCA6
:101B9000690740F1C780002B00F0C480418D002907
:101BA00000F0C080416A11F8012B3A610FE000BFDC
:101BB000690740F1B780002B00F0B480418D002907
:101BC00000F0B0803969426A1170416A01314162A6
:101BD000418D01394185A5E0002000907869009091
:101BE000B8690090009801B0F0BD00BF54F8341FF0
:101BF0000A68526824F80A2C34F80A2C1AB1026CCC
:101C000042F0040202647A68064622F40062084642
:101C10007A60FFF70BFB01463046012910D020689F
:101C200044F24901C0F600014163FFF7A3FA0146FF
:101C3000304629B1216804464A6B08469047204641
:101C4000418D61B101684A6952072FD44A69520631
:101C500039D4418D19B1016C41F004010164016C6A
:101C600021B101B0BDE8F04002F080BA2A2D08D1C0
:101C700000210163282180F83D10044600F00AFA93
:101C8000204690F83D10282932D10021CFF6FF716F
:101C9000C16200212022016380F83D2080F83E10BF
:101CA00001B0BDE8F04000F099B900BF0969426A8F
:101CB0001170426A016801324262428D013A4285E6
:101CC0004A695206C5D50969426A1170416A0131F3
:101CD0004162418D01394185418D0029BBD1BEE76B
:101CE000406C062101EAD010F030386101B0F0BD3F
:101CF000016B222918BF222D14D10021202201635B
:101D000080F83D2080F83E1001B0BDE8F04000F0C2
:101D1000C1B900BF402D05D101B0BDE8F04002F0CF
:101D2000A7BC00BF01B0F0BD428D52B1428D012A67
:101D300016D1202918BF082946D1396821F48061BD
:101D400039600021009179690091B9690091009989
:101D5000396841F4007139600021016501B0F0BDBE
:101D6000428D022A14D110295AD8012214238A4004
:101D7000C0F201031A4253D03A6842F480623A60DA
:101D8000002200927A690092BA690092009A56E0A5
:101D90003A6842F480623A607A68120534D54A1E85
:101DA0001F2A08D8012303FA02F248F28103C8F27D
:101DB00000031A4202D111F5803F25D1796841F420
:101DC0008051796020E000BF11F5803F0AD1396869
:101DD00021F48061396079680905B2D5396821F448
:101DE000806110E0122B01D10129A6D11029F5D86C
:101DF000012202FA01F11422C0F201021142EDD0D7
:101E0000396841F48061396000210091796900915D
:101E1000B969009100990021016501B0F0BD00BFD2
:101E20003A6842F400623A60002200927A690092B5
:101E3000BA690092009A3A6822F480623A607A683D
:101E4000120512D54A1E1F2A08D8012303FA02F2EE
:101E500048F28103C8F200031A4202D111F5803F13
:101E600003D1796841F4805179600021016501B0A6
:101E7000F0BD000070470000002804BF012070473B
:101E8000F0B581B0044690F83D0028B9002084F8F0
:101E90003C00204600F0ACF8242084F83D00206887
:101EA000016821F001010160016841F40041016015
:101EB000016821F40041016000F006FB636848F20C
:101EC000A16CC0F2010C40F60011C0F23D01634567
:101ED0003CBF48F28041C0F21E01884202D201207C
:101EE00001B0F0BD4DF68361C4F21B31A0FB0112BD
:101EF0002168970CD1F804E04FF496762EF03F0558
:101F000045EA92454D60774348F638160D6AC0F2AF
:101F10004106A7FB067625F03F07634538BF960CC0
:101F2000721C3A430A62CA6948F2A0664CF6FF770F
:101F3000C0F20106B34222EA07020BD801385B0067
:101F4000B0FBF3F001306FF31F30042898BF04207A
:101F50001BE000BFA768013857B119277B43B0FBCE
:101F6000F3F001306FF31F3070B100F5804007E0EF
:101F700003EB4303B0FBF3F001306FF31F3018B1F4
:101F800000F5004001E000BF01201043C86108686F
:101F9000D4E9072320F0C000104318430860886884
:101FA00048F2FF3204F10C0790438CCF18431043E2
:101FB000A6698860C86820F0FF0038433043C860D5
:101FC000086840F00100086000202021206484F8A7
:101FD0003D10206384F83E0001B0F0BD7047000062
:101FE0007047000070470000704700007047000015
:101FF00010B586B0006845F20041C4F20001884285
:102000004FF00000CDE90400CDE9020002D006B097
:1020100010BD00BF41F21804C4F20204206802A9F6
:1020200040F008002060206800F00800019001984E
:102030004FF440700290122003900320059040F668
:102040000040C4F20100FFF729FA0420C4F20100A5
:102050000168002241F0E06141F002010160606826
:10206000002140F400106060606800F400100190EE
:1020700001981F2000F08CF81F2000F077F8202036
:102080000021002200F084F8202000F06FF806B054
:1020900010BD0000704700007047000040F21C00B7
:1020A00040F2EC31C2F20000C2F2000100780A688E
:1020B000104408607047000080B542F20000C4F28E
:1020C0000200016841F010010160032000F08CF86B
:1020D0000F2000F005F800F027F8002080BD000078
:1020E00070B540F21C06C2F2000640F25C01327884
:1020F000C2F200014FF47A730968B3FBF2F20446AE
:10210000B1FBF2F1084600F007FC0F2C4FF001057F
:1021100008D838B94FF0FF3021460022002500F0E2
:1021200037F87460284670BD82B041F21800C4F2DE
:1021300002000168022241F001010160016801F022
:10214000010101910199416841F08051416040686D
:1021500000F08050009000980420C4F20100016853
:1021600062F31A61016002B070470000002848BFA6
:10217000704700F01F01012202FA01F11C2202EA5D
:10218000D0004EF20012CEF20002815070470000E3
:1021900010B54EF60C5CCEF2000CDCF80030C3F348
:1021A000022E8EF00704042C28BF0424BEF1030382
:1021B0004FF0FF3E0EFA04F438BF0023A1439940CC
:1021C0000EFA03F39A43114300F00F0200F160434B
:1021D0000901043A03F564436244002848BF02F150
:1021E0000C03197010BD00004EF60C51CEF2000128
:1021F0000A684FF6FF031A4060F30A2242F080603B
:1022000040F0FD70086070472DE9F04182B004464F
:10221000007841F21C06C007C4F202064AD03068BA
:102220005FEAC00808D4306840F080503060306801
:1022300000F080500190019847F20007C4F20007B7
:102240003868C00512D4386840F480703860FFF7F1
:1022500039FA05463868C00508D4FFF733FA401B41
:102260006428F7D9032002B0BDE8F081706810F44B
:10227000407012D0616801F4407188420DD07068DE
:1022800040F24042C4F24222012320F44071136024
:102290000023C0071360716026D17068616820F464
:1022A00040700843B8F1000F706003D4306820F02C
:1022B000805030602068810707D556F8181CA26846
:1022C00021F44041114346F8181CC00607D556F8C2
:1022D000180CE16820F48000084346F8180C002030
:1022E00002B0BDE8F08100BFFFF7ECF9054641F20E
:1022F000883700BF70688007CFD4FFF7E3F9401B31
:10230000B8424FF00300F5D9EAE70000002804BF07
:10231000012070472DE9F04381B042F20008C4F279
:1023200002080446D8F800000D4600F00700884275
:102330000CD2D8F8000020F007002843C8F80000AD
:10234000D8F8000000F00700A8426CD1206841F2E4
:1023500004098107C4F2020917D5410705D5D9F848
:10236000001041F4E061C9F80010010705D5D9F863
:10237000001041F46051C9F80010D9F80010A268AB
:1023800021F0F0011143C9F80010C00742D1D8F87C
:10239000000000F00700A8420CD9D8F8000020F097
:1023A00007002843C8F80000D8F8000000F0070034
:1023B000A84238D12068410707D5D9F80010E26853
:1023C00021F4E0611143C9F80010000708D5D9F8DD
:1023D0000000216920F4605040EAC100C9F8000003
:1023E000D9F8002002F00C00082841F20020C0F2C9
:1023F0007A004DD149F28003C2F38341C0F6000355
:10240000595CD20338D440F60010C0F23D00484376
:102410003EE000BF606859F8041C022808D001287B
:1024200026D1890306D4012001B0BDE8F08300BFA6
:102430008901F8D5D9F8001021F003010843C9F843
:102440000000FFF73FF9064641F28837D9F800004F
:10245000616800F00C00B0EB810F98D0FFF732F903
:10246000801BB842F2D9032001B0BDE8F08300BF61
:102470008907D8D5DEE700BFD9F8002049F27E03EE
:10248000C2F34042C0F600039A5C4843B0FBF2F04E
:10249000D9F8001049F26602C1F30311C0F6000238
:1024A000515C40F25C0220FA01F140F22000C2F2DD
:1024B00000000068C2F200021160FFF711FE002068
:1024C00001B0BDE8F083000040F25C0041F204017D
:1024D000C2F20000C4F202010068096849F2760203
:1024E000C1F30221C0F60002515CC84070470000F1
:1024F00040F25C0041F20401C2F20000C4F20201A9
:102500000068096849F27602C1F3C221C0F60002F0
:10251000515CC84070470000002804BF012070478C
:102520002DE9F04182B00446007841F20006C00770
:10253000C4F202060CD0706800F00C00042840F0D1
:1025400081803068800303D56068002800F04681F0
:10255000207880071BD5706810F00C0F09D07068C8
:1025600000F00C00082840F087807068C00300F17C
:1025700083803068800703D52069012840F02E81D0
:102580003068616920F0F80040EAC10030602078CE
:10259000000713D4207840072CD4E569002D00F003
:1025A0001881706800F00C00082840F0A780012D09
:1025B00040F00481012002B0BDE8F081A06900284C
:1025C00000F084800020C4F242200121C0F8801471
:1025D000FFF778F8054600BF706A800700F1B28007
:1025E000FFF770F8401B0228F6D9032002B0BDE8BF
:1025F000F08100BFF0695FEAC00808D4F06940F0DC
:102600008050F061F06900F080500090009847F22F
:102610000007C4F200073868C00549D4386840F4A0
:1026200080703860FFF74EF8054600BF3868C00577
:102630003ED4FFF747F8401B6428F7D9032002B0C7
:10264000BDE8F081706800F00C00082803D17068C4
:10265000C0033FF576AF61683068002900F00C8157
:10266000B1F5A02F00F00081B1F5803F40F01A8154
:1026700040F480301CE100BF2069002840F20000D7
:10268000C4F2422000F0888001210160FFF71AF8AF
:10269000054600BF306880073FF572AFFFF712F8BC
:1026A000401B0228F6D9032002B0BDE8F08100BF2C
:1026B000E168306A002900F09D80052900F09280D1
:1026C000012940F0AF8040F00100B1E00020C4F2E9
:1026D00042200021C0F88014FEF7F4FF054600BF39
:1026E000706A80077FF556AFFEF7ECFF401B0228AB
:1026F000F6D9032002B0BDE8F08100BF0027C4F284
:10270000422700203866FEF7DDFF022D05460DD179
:102710003068800140F1DE80FEF7D4FF401B0228C4
:102720004FF00300F4D902B0BDE8F08130688001B9
:102730004FD5FEF7C7FF401B02284FF00300F5D925
:10274000F1E700BF40F25C00C2F20000006844F60E
:10275000D351C1F26201A0FB0101480A019000BF00
:1027600000BF0198411E002801913FF413AF00BF44
:102770000198411E002801913FF40CAF00BF019861
:10278000411E002801913FF405AF00BF0198411E92
:1027900000280191E4D1FDE600210160FEF792FFDF
:1027A000054600BF306880077FF5F1AEFEF78AFF6F
:1027B000401B02284FF00300F4D9B4E77068216A87
:1027C00000F480328A4209D1616A00F470108842B4
:1027D00004D1002002B0BDE8F08100BF012002B0AA
:1027E000BDE8F08140F004003062306A40F0010042
:1027F0001EE000BF20F001003062306A20F00400CB
:102800003062FEF75FFF054641F28837306A800785
:1028100020D5FEF757FF401BB8424FF00300F5D913
:1028200081E700BF20F001003062306A20F0040030
:102830003062FEF747FF054641F28837306A80076D
:1028400008D4FEF73FFF401BB842F7D9032002B07F
:10285000BDE8F081B8F1000F3FF59FAEF06920F0C0
:102860008050F06199E600BF40F48020306030680D
:1028700040F480301CE000BF20F4803030603068CD
:1028800020F480203060FEF71DFF0546306880038D
:102890007FF55EAEFEF716FF401B64284FF0030085
:1028A000F4D940E720F480303060306820F4802094
:1028B0003060FEF707FF0546306880033FF548AEFD
:1028C000FEF700FF401B6428F6D9032002B0BDE8E4
:1028D000F08100BF206AB0F5803F05D17168A26821
:1028E00021F40031114371607168626A21F474113E
:1028F00011430843706001203866FEF7E3FE04468A
:10290000306880013FF565AFFEF7DCFE001B022852
:102910004FF00300F4D906E7411E0020B0EB116F21
:102920001CBF012070474EF21002CEF2000251602F
:102930004EF62351CEF20001F0230B700721906078
:1029400011607047704700007047000090F83C200D
:10295000012A04BF02207047B0B501F108053CCD43
:10296000D1E900CE23F47C5322F470521A432EF4A2
:10297000F0431A432CF4E0431A4324F4C0431A43AF
:102980002A43C96922F48042036811435964002133
:1029900080F83C100020B0BD90F83C20012A4FF098
:1029A000020236D010B580F83D200268D2F804E06B
:1029B000D2F808C00C682EF07003234340F2FF7475
:1029C000C4F20004A24253600ADCB2F1804F13D07B
:1029D00040F20043C4F200039A420DD011E000BF60
:1029E00042F60043C4F201039A4205D040F60003C8
:1029F000C4F200039A4204D149682CF080031943C1
:102A000091600121002280F83D1080F83C20BDE853
:102A10001040104670470000002804BF0120704796
:102A200010B590F83D1031B9002180F83C100446F3
:102A300000F070F82046022180F83D10016840F255
:102A4000FF740B68C4F2000442F6004CA142C4F2C9
:102A5000010C15DCB1F1804F1AD040F20042C4F2F3
:102A60000002914214D0A14218DCB1F1804F1DD078
:102A700040F20042C4F20002914217D01AE000BFB7
:102A8000614505D040F60002C4F200029142EAD14D
:102A9000826823F070031343A142E6DD614505D04F
:102AA00040F60002C4F20002914203D1026923F40D
:102AB00040731343846923F08002D0F804E0C368B4
:102AC000224361450A60CB62C1F828E002D1426925
:102AD000CCF8302001224A610B69DB0703D00B6977
:102AE00023F001030B6180F8462080F83E2080F837
:102AF0003F2080F8402080F8412080F8422080F874
:102B0000432080F8442080F8452080F83D200020B4
:102B100010BD000010B582B00068B0F1804F2DD01C
:102B200042F60041C4F20101884241D141F218004D
:102B3000C4F202000168002241F4006101600068F3
:102B4000002100F40060019001981820FFF720FB9D
:102B50001820FFF70BFB192000210022FFF718FBBC
:102B60001920FFF703FB1A2000210022FFF710FBBA
:102B70001A20FFF7FBFA1B240EE000BF41F21800F9
:102B8000C4F2020041681C2441F001014160406828
:102B900000F0010000900098204600210022FFF77D
:102BA000F7FA204602B0BDE81040FFF7DFBA00BFD9
:102BB00002B010BD90F83D1001291CBF01207047E4
:102BC000022180F83D10006840F2FF72C168C4F233
:102BD0000002904241F00101C16009DCB0F1804F78
:102BE00012D040F20041C4F2000188420CD012E041
:102BF00042F60041C4F20101884205D040F60001CE
:102C0000C4F20001884206D1816801F0070106295B
:102C100004BF00207047016841F0010101600020FD
:102C20007047000090F83C20012A4FF002026CD05F
:102C300080B580F83D20D0F800C04FF67772DCF800
:102C4000083023EA0202CCF808200B684F2B29DC5D
:102C50001F2B45DD202B46D0302B44D0402B40F09D
:102C6000AF80D1F804E0C968DCF82030DCF820201F
:102C700022F00102CCF82020DCF8182022F0F0022B
:102C800042EA011123F00A0242EA0E02CCF81810BF
:102C9000CCF82020DCF8081041F0470121F0300189
:102CA00028E000BF6F2B33DDB3F5005F74D0B3F5C0
:102CB000805F21D0702B40F08380D1E901E3C968A7
:102CC000DCF8082043EA0E0322F47F4243EA0121A4
:102CD0001143CCF80810DCF8081041F0770109E046
:102CE0000BB1102B6CD1DCF8081021F070011943E6
:102CF00041F00701CCF808100022012180F83D10B6
:102D0000002180F83C10BDE880401046704700BFAD
:102D1000502B21D0602B53D1D1F804E0C968DCF8E6
:102D20002030DCF8202022F01002CCF82020DCF843
:102D3000182022F4704242EA013123F0A00242EA54
:102D40000E12CCF81810CCF82020DCF8081041F056
:102D5000670121F01001CDE7D1F804E0C968DCF883
:102D60002030DCF8202022F00102CCF82020DCF812
:102D7000182022F0F00242EA011123F00A0242EA8E
:102D80000E02CCF81810CCF82020DCF8081041F026
:102D9000570121F02001ADE7D1E901E3C968DCF872
:102DA000082043EA0E0322F47F4243EA0121114343
:102DB000CCF80810DCF8081041F480419AE700BF15
:102DC00001229AE7002804BF012070472DE9F04F47
:102DD00081B090F83D2042B9002280F83C200446A2
:102DE0000D4600F09DF829462046022280F83D203D
:102DF000026844F20705936842F6004CAB439360C7
:102E000040F2FF731468C4F200039A42C4F2010C4A
:102E100014DCB2F1804F19D040F20045C4F2000535
:102E2000AA4213D09A4217DCB2F1804F1CD040F274
:102E30000043C4F200039A4216D01AE0624505D05E
:102E400040F60005C4F20005AA42EBD1856824F0E3
:102E500070042C439A42E7DD624505D040F600033A
:102E6000C4F200039A4204D1036924F4407543EA92
:102E7000050424F080038469D0F804E0C568234386
:102E800062451360D562C2F828E002D14369CCF8EC
:102E900030304FF0010EC2F814E01569ED0703D091
:102EA000156925F00105156195689469D2F820C06F
:102EB000D1E90038D1E9027B43EA050A8D694FF672
:102EC000FF7924EA090447EA05254FF6FC47BD438C
:102ED000D1E9077644EA0B040B692C4344EA072442
:102EE0002CF02207496944EA031347EA080743EA3A
:102EF000063347EA0111C2F808A09361116280F815
:102F000046E080F83EE080F83FE080F842E080F85C
:102F100043E080F83DE0002001B0BDE8F08F000004
:102F200080B586B0006840F60002C4F200020021BD
:102F300090420591CDE9031102912BD040F200415E
:102F4000C4F20001884251D141F21800C4F20200DB
:102F5000416841F002014160416801F002010191C4
:102F60000199016841F004010160006802A900F0C4
:102F7000040001900198C0200290002003900120DD
:102F8000049040F60000C4F20100FEF787FA06B094
:102F900080BD00BF41F21800C4F20200426842F056
:102FA00004024260426802F004020192019A02683F
:102FB00042F008020260006800F0080001900198E9
:102FC000C020CDE902010120049040F60000C4F2C7
:102FD000010000F5806002A9FEF760FA1E200021C2
:102FE0000022FFF7D5F81E20FFF7C0F806B080BD1D
:102FF00080B590F83E2090F83F3090F842E090F88D
:1030000043C004290AD0B9B9012A4FF0010208BF10
:10301000BEF1010F34D0104680BD00BF012B4FF030
:10302000010208BFBCF1010FF5D1022180F83F1069
:1030300080F8431000681EE0012A4FF0010208BF2B
:10304000012BE8D1BEF1010FE5D1BCF1010FE2D1B6
:10305000022280F83E2080F83F2080F8422080F84D
:10306000432091B10068016A21F001010162016A07
:1030700041F00101016210216FF0100209E000BF70
:10308000022180F83E1080F84210006801216FF0A4
:103090000102036A1A400262026A11430162016876
:1030A000002241F001010160104680BD7047000020
:1030B00070B504460068C5680669B10716D515F0F5
:1030C000020113D06FF002010161012121778069B3
:1030D000800703D02046FFF7E9FF05E0204600F017
:1030E0008FF8204600F010FA00202077700719D5DD
:1030F00015F0040016D020686FF004010161022170
:103100002177806910F4407F04D02046FFF7CEFF7E
:1031100006E000BF204600F073F8204600F0F4F906
:1031200000202077300717D515F0080014D020684C
:103130006FF00801016104212177C069800703D085
:103140002046FFF7B3FF05E0204600F059F820467F
:1031500000F0DAF900202077F00619D515F01000FC
:1031600016D020686FF01001016108212177C06935
:1031700010F4407F04D02046FFF798FF06E000BF20
:10318000204600F03DF8204600F0BEF900202077F0
:10319000F00718BF15F0010002D1300609D412E083
:1031A00020686FF001010161204600F01DFA300631
:1031B00009D515F0800006D020686FF0800101610C
:1031C0002046FFF7BFFB700609D515F0400006D07A
:1031D00020686FF040010161204600F01FFAB00640
:1031E00058BF70BD15F0200008D021686FF0200294
:1031F00020460A61BDE87040FFF7A6BB70BD000025
:103200007047000090F83C30012B04BF022070474B
:103210004FEAB202032A00F2F1802DE9F043DFE821
:1032200002F003A53B7500BF036842F600461D6A25
:103230001A6AC4F2010622F001021A621A465C6898
:1032400052F818CFB3428E68D1F800E025F002059D
:1032500045EA06050CD1CE68D1E9057824F440741E
:1032600025F00C0526F004063C43354344EA0804E7
:103270002CF0730747EA0E075C609F614F6809698D
:103280005F631D629F6947F008079F619F6927F090
:1032900004079F61A6E000BF036842F600461D6A6E
:1032A0001A6AC4F2010622F480721A621A46D3F82E
:1032B00004C052F81CEFB3428E680C6825F4007508
:1032C00045EA06250FD1CE68D1E90598360240F2CD
:1032D000FF4725F44065BE4335432CF4405748EA88
:1032E000090647EA061C2EF073072743C3F804C0FB
:1032F000DF614F680969DF631D62DF6947F0080716
:10330000DF61DF6927F00407DF616BE0036842F6E5
:103310000047D3F820C01A6AC4F2010722F4805291
:103320001A621A465C6852F81C5FD1F800E08E6899
:10333000BB4204D14F6924F4804444EA87142CF43E
:10334000005747EA063725F4E64646EA0E265C6053
:10335000DE614E6809691E641F62DF6947F4006719
:10336000DF61DF6927F48067DF613AE0036842F6D6
:1033700000461D6A1A6AC4F2010622F010021A629F
:103380001A46D3F804C052F8184FB3428E68D1F8E9
:1033900000E025F0200545EA06150FD1CE68D1E9F9
:1033A00005986FF0400725F0C00507EA061635437B
:1033B0002CF4406748EA090647EA860C24F4E64400
:1033C00044EA0E27C3F804C09F614F6809699F63F0
:1033D0001D629F6947F400679F619F6927F48067BA
:1033E0009F6109021368194311600021BDE8F04391
:1033F000002280F83C200846704700BF01210022CF
:1034000080F83C2008467047002804BF0120704720
:1034100010B590F83D1031B9002180F83C100446F9
:1034200000F070F82046022180F83D10016840F25B
:10343000FF740B68C4F2000442F6004CA142C4F2CF
:10344000010C15DCB1F1804F1AD040F20042C4F2F9
:103450000002914214D0A14218DCB1F1804F1DD07E
:1034600040F20042C4F20002914217D01AE000BFBD
:10347000614505D040F60002C4F200029142EAD153
:10348000826823F070031343A142E6DD614505D055
:1034900040F60002C4F20002914203D1026923F413
:1034A00040731343846923F08002D0F804E0C368BA
:1034B000224361450A60CB62C1F828E002D142692B
:1034C000CCF8302001224A610B69DB0703D00B697D
:1034D00023F001030B6180F8462080F83E2080F83D
:1034E0003F2080F8402080F8412080F8422080F87A
:1034F000432080F8442080F8452080F83D200020BB
:1035000010BD00007047000070470000C1B10429E1
:1035100008D0082914BF41224022825C012A05D02C
:1035200016E000BF3F22825C012A11D10222082945
:1035300010D0042914BF80F8412080F83F200BE010
:1035400090F83E20012A03D1022280F83E2003E0B9
:103550000120704780F84020006801F01F0101221F
:10356000036A8A4023EA02010162036A42F6444187
:10357000C4F201011A43A1F14403984202620FD040
:1035800040F2FF71C4F20001884213DCB0F1804FB9
:103590001CD040F20041C4F20001884216D01CE069
:1035A0000A6842F400420A6040F2FF71C4F200016E
:1035B0008842EBDD42F60041C4F20101884205D0A9
:1035C00040F60001C4F20001884206D1816801F092
:1035D0000701062904BF00207047016841F001017E
:1035E000016000207047000040F23C21C2F200015F
:1035F000884218BF704740F27002C2F20002508841
:10360000013081B20529508006D3D2E9071000238A
:103610005380FDF79BBA00BF704700007047000061
:103620007047000070470000B0B582B001680A68BA
:10363000CC684B6902F02F05202D04F0200505D140
:1036400025B102B0BDE8B04001F0ECBE5FEA027CFB
:103650001EBF03F0010E04F4907313EB0E0341D16F
:10366000036BD50618D5012B16D114F0100313D017
:10367000002201920A6801924A680192019A4969FE
:1036800049064BD4818DC28DC38D002B18BF91424A
:1036900040F0F48102B0B0BD13062DD514F08003C4
:1036A0002AD090F84120212AF4D18268B2F5805FB7
:1036B00003D10269002A00F06782026A531C036288
:1036C00012784A60C28C013A1304C284E2D1C868FD
:1036D00020F08000C860C86840F04000C86002B0B8
:1036E000B0BD00BFD30718BF14F4807340F0D08082
:1036F000530700F1D380D8E05206CBD514F0400236
:10370000C8D0CA6822F04002CA60202180F8411067
:1037100002B0BDE8B04000F087BC00BFC16B0A68D2
:10372000526893B2002BB5D0858DAB42B2D2C28520
:103730008969202900F0A180016851E8031F02680F
:1037400021F4807142E80313DBB1016851E8031FE3
:10375000026821F4807142E8031393B1016851E8D3
:10376000031F026821F4807142E803134BB1016822
:1037700051E8031F026821F4807142E80313002B13
:10378000DAD1016851E8051F026821F0010142E821
:103790000513C3B3016851E8051F026821F0010158
:1037A00042E805137BB3016851E8051F026821F068
:1037B000010142E8051333B3016851E8051F0268AF
:1037C00021F0010142E80513002BDAD11BE000BF14
:1037D000016851E8051F026821F0400142E8051325
:1037E000DBB1016851E8051F026821F0400142E8A1
:1037F000051393B1016851E8051F026821F04001EB
:1038000042E805134BB1016851E8051F026821F039
:10381000400142E80513002BDAD1202180F8421044
:1038200000210163016851E8031F026821F01001C3
:1038300042E80313DBB1016851E8031F026821F07D
:10384000100142E8031393B1016851E8031F0268B5
:1038500021F0100142E803134BB1016851E8031F46
:10386000026821F0100142E80313002BDAD1C16B8A
:1038700004460846FDF75AFC204602214163818D2B
:10388000C28D891A89B202B0BDE8B040FFF7C8BE48
:10389000436C43F001034364530706D5BEF1000FA8
:1038A00003D0436C43F002034364930706D5BEF193
:1038B000000F03D0436C43F004034364BCF1000FDA
:1038C00006D55EEA050303D0436C43F00803436466
:1038D000436C002B3FF4DEAE920605D525B10446BD
:1038E00001F0A0FD216820464969426C01F04001C9
:1038F00002F00802891800F0B98000BF016851E8A1
:10390000031F026821F4907142E80313BBB30168FE
:1039100051E8031F026821F4907142E8031373B366
:10392000016851E8031F026821F4907142E8031313
:103930002BB3016851E8031F026821F4907142E83B
:103940000313002BDAD11AE0016851E8051F026861
:1039500021F0010142E80513DBB1016851E8051FC0
:10396000026821F0010142E8051393B1016851E8B2
:10397000051F026821F0010142E805134BB10168FF
:1039800051E8051F026821F0010142E80513002BF0
:10399000DAD1016B012924D1016851E8031F0268C3
:1039A00021F0100142E80313DBB1016851E8031F65
:1039B000026821F0100142E8031393B1016851E855
:1039C000031F026821F0100142E803134BB10168A4
:1039D00051E8031F026821F0100142E80313002B95
:1039E000DAD1202180F84210002101630168496981
:1039F000490640F1C380016851E8051F026821F0C3
:103A0000400142E80513DBB1016851E8051F026877
:103A100021F0400142E8051393B1016851E8051F08
:103A2000026821F0400142E805134BB1016851E8FA
:103A3000051F026821F0400142E80513002BDAD18E
:103A4000C16B002900F09A8045F21942C0F60002CD
:103A5000044608464A63FDF78DFB00283FF41AAE82
:103A6000E06B416B02B0BDE8B04008470446FFF789
:103A7000D9FD0020606402B0B0BD00BF891A00BF4C
:103A8000026852E8032F036822F4907243E803258A
:103A9000BDB3026852E8032F036822F4907243E832
:103AA000032575B3026852E8032F036822F490726D
:103AB00043E803252DB3026852E8032F036822F47C
:103AC000907243E80325002DDAD11AE0026852E82B
:103AD000052F036822F0010243E80525DDB10268E5
:103AE00052E8052F036822F0010243E8052595B14D
:103AF000026852E8052F036822F0010243E8052519
:103B00004DB1026852E8052F036822F0010243E834
:103B10000525002DDAD1202280F842200022026300
:103B2000026852E8032F036822F0100243E80325DD
:103B3000DDB1026852E8032F036822F0100243E867
:103B4000032595B1026852E8032F036822F01002A2
:103B500043E803254DB1026852E8032F036822F0C1
:103B6000100243E80325002DDAD1022289B2426314
:103B700002B0BDE8B040FFF753BD00BF02B0BDE8E2
:103B8000B040FFF74FBD00BF026A32F8023B6FF34F
:103B90005F234B60026295E5002804BF0120704757
:103BA00010B5044690F8410028B9002084F8400080
:103BB000204600F063F8242084F841002068D4E90E
:103BC0000212C36823F40053C360036923F4405313
:103BD0001A430261D4E904231143C268194341F234
:103BE0000C639A431143C1604169A26921F4407199
:103BF000114343F60002C4F201029042416103D036
:103C0000FEF762FC02E000BFFEF772FCD4E900237D
:103C1000192148439900B0FBF1F048F21F5CC5F24E
:103C2000EB1CA0FB0C314FF69C734909C0F6FF73E7
:103C300001FB0300322303EB0010A0FB0C03F02078
:103C400000EA531000EB0110C3F3431108449060E5
:103C50001069202120F490401061506920F02A0062
:103C60005061D06840F40050D0600020606484F857
:103C7000411084F84210606310BD00002DE9F0414E
:103C800086B00446006844F20041C4F200010027F7
:103C900088420597CDE90377029700F0A58044F6A6
:103CA0000001C4F20001884238D043F60001C4F29A
:103CB0000101884240F0E88041F21800C4F202009D
:103CC000016840F6000441F4804101600168C4F2DB
:103CD000010401F4804101910199016802AD41F0B4
:103CE000040101600068294600F004000190019879
:103CF0004FF40070029002200390032005902046AC
:103D0000FDF7CCFB4FF4806002900020CDE903006A
:103D100020462946FDF7C2FB2524ADE041F21800FC
:103D2000C4F20200416802AE41F480214160416862
:103D300040F21C0801F48021019101990168C4F24C
:103D4000020841F0080101600068314600F00800F7
:103D5000019001984FF480600290022003900320AC
:103D6000059040F60000C4F2010000F58065284689
:103D7000FDF794FB4FF4006002900027284631467F
:103D8000CDE90377FDF78AFB40F25C15C2F200052E
:103D900010208026C5E900802846C5E90276C5E9DD
:103DA0000477C5E90677FDF715FB002818BFFDF776
:103DB0001BF8A5636C6240F2181508F11400C2F2FA
:103DC0000005C5E900072846C5E90276C5E904777C
:103DD000C5E90677FDF7FEFA002818BFFDF704F8DD
:103DE000E5636C62272447E041F21800C4F2020048
:103DF000416840F6000541F4003141604168C4F279
:103E0000010501F4003101910199016802AE41F010
:103E1000040101600068314600F00400019001983F
:103E20000420029002200390032005902846FDF70D
:103E300035FB0820CDE90207284631460497FDF7F7
:103E40002DFB1C20C4F2020040F2D4055030C2F217
:103E500000058021C5E900072846C5E90271C5E9CA
:103E60000477C5E90677FDF7B5FA002818BFFCF717
:103E7000BBFFE5636C622624204600210022FEF78A
:103E800087F92046FEF772F906B0BDE8F081000020
:103E9000704700002DE9F04381B0044690F84100DE
:103EA000202809D100294FF0010018BF002A07D1AE
:103EB00001B0BDE8F08300BF022001B0BDE8F0838F
:103EC0000020606421201D460E4684F841001746FC
:103ED000FDF7F8FBA784E784A1688146B1F5805F10
:103EE00002D1206900285DD037460020E28C21688D
:103EF000002A5DD06A1C24D0002D4AD0804600BF25
:103F00000868000608D4FDF7DDFBA0EB0900A84215
:103F10007AD82168C868F3E717B117F8010B04E0F5
:103F200038F8020B00276FF35F204860E08C0138FF
:103F3000E084E08C0028E3D13AE000BF0A68120672
:103F400009D40A68120606D40A6812065CBF0A6819
:103F50005FEA0262F2D51FB117F8012B05E000BF3E
:103F600030F8022B00276FF35F224A60E28C013A9F
:103F7000E284E28C002AE4D11AE000BF30F8022B80
:103F800000276FF35F224A60E28C013AE284E28C00
:103F900072B10A68120635D5002FEFD017F8012B41
:103FA000F1E700BF00273046E28C2168002AA1D14A
:103FB000086840061ED42DB3681C14D1086840065A
:103FC0002AD40868400627D40868400624D4086824
:103FD00040064FF00000F1D50DE000BF2068C16839
:103FE0000068400618D4FDF76DFBA0EB0900A8425D
:103FF000F4D909E00020202184F8411001B0BDE887
:10400000F08300BFFDF75EFB0320202184F8411000
:1040100001B0BDE8F08300BF0020202184F84110EA
:1040200001B0BDE8F083000070470000FEE700002B
:1040300040F2A010C2F20000FDF74EBB40F2A0100B
:10404000C2F20000FDF7F2BB10B581B00021009173
:10405000406A40F25C01C2F2000190F83DC009687C
:104060004BF28952C908C1F2F842A1FB0212110AAF
:10407000232251430091009911B300990139009115
:104080000168096889051FD50099C9B100990139EE
:10409000009101680968890516D5009981B10099D8
:1040A000013900910168096889050DD5009939B178
:1040B000009901390091016809688905DBD403E0A2
:1040C000016C41F020010164446B4FF0000E002CA4
:1040D0001CBF0021A162816B00291CBF00228A62E3
:1040E0000268002C136823F480631360A0F82AE0B0
:1040F00018BFC4F834E000291CBF00234B631168CB
:1041000021F00101116090F83D1060290CD12021AF
:1041100080F83D10002180F83E10016401B0BDE838
:104120001040FDF7D5BA00BF0CF02801282911D1A5
:10413000116841F001011160116841F48061116062
:1041400000210163282180F83D1001B0BDE8104036
:10415000FDF790BE202180F83D10002180F83E1030
:1041600001B0BDE81040FDF785BE000010B5044663
:1041700090F83D1090F83E00B0F1100218BF0122F7
:10418000403818BF0120024208BF222934D001F074
:10419000280028283AD100202063282084F83D00F8
:1041A00020684168090542D5416821F400614160F9
:1041B000606B90F82110012958D1A06B44F249019D
:1041C000C0F600014163FCF7D5FF002861D02068EC
:1041D0004169490606D50069616A0870616A20680C
:1041E00001316162016821F001010160202084F841
:1041F0003D00A06B4BE000BF2068026822F4006223
:1042000002604268120505D50CE000BF20684268D4
:10421000120507D4602905D0202184F83D10002123
:1042200084F83E100021216341680905BCD494F84C
:104230003D10602950D1202184F83D1000212164D7
:104240004169490606D50069616A0870616A20689B
:1042500001316162016821F0010101602046FDF732
:1042600037FA206C000717D11BE000BF44F2490168
:10427000C0F600014163FCF77DFF50B12168606B1F
:104280000A6822F001020A60202184F83D10416B87
:104290008847206C000704D02068416821F4E06161
:1042A000416094F83D00216C490758BF10BD282893
:1042B00010D10020CFF6FF70E062002120202163A2
:1042C00084F83D00204684F83E10BDE81040FDF71C
:1042D00085BE00BF10BD00BF4169490605D5006914
:1042E000616A0870606A013060622046FDF7C2FDB5
:1042F000206C0007D0D1D4E7C16A428D042A07D1CF
:104300000168426A4B6823F480634B60096911E0DD
:10431000428D032A16D102680229536823F4806370
:10432000536005D0042903D0116821F48061116025
:104330001169426A1170416A01314162418D01394E
:1043400041857047428D022A12D14A1E0F2A19D880
:10435000DFE802F0081218121818181818181818A0
:10436000181818080268136823F480630EE000BF71
:104370000168426ACAE700BF0268136843F48063B9
:1043800004E000BF0268136843F40073136012690D
:10439000436A1A70426AD0F800C0531C4362438DCE
:1043A000013B4385DCF810305370426A03680132E8
:1043B0004262428D013A42855A6822F440725A6044
:1043C000202280F83D2090F83E300022402B80F8DB
:1043D0003E2003D10263FDF707BE00BFB1F1080222
:1043E00018BF1222203918BF11460163FDF7F8BD2E
:1043F00081B090F83D10222910D1C16A428D042A63
:104400000ED30168426A09691170416A0131416243
:10441000418D01394185418D03295DD001B070473F
:10442000C36A012A58D8022B56D00022009240F2CB
:104430005C02C2F2000212684BF28953D208C1F248
:10444000F843A2FB03231A0A02EB82020092009AAD
:10445000013A0092009A002A46D0026813689B0530
:104460001AD5009A013A0092009AEAB302681368DA
:104470009B0511D5009A013A0092009AA2B30268F6
:1044800013689B0508D5009A013A0092009A5AB326
:10449000026813689B05DAD4136823F48063136001
:1044A000536823F4E06353601269436A1A70426AE6
:1044B00001324262428D013A4285202280F83D203D
:1044C00090F83E300022402B80F83E2028D1026335
:1044D00001B0FDF789BD00BF0068416821F480612B
:1044E000416001B0704700BF016C41F020010164E0
:1044F0000168426A4B6823F4E0634B6009691170FC
:10450000416A01314162418D01394185202180F8A4
:104510003D10002180F83E1001B0FDF7ABBC00BF9C
:10452000B1F1080218BF1222203918BF11460163E9
:1045300001B0FDF755BD0000C16A90F83D20212A69
:1045400018BF7047428D4AB1416A026811F8013BB9
:1045500013614162418D01394185704711F5803FFA
:1045600018BF082918D101684A6822F4E0624A603D
:104570000A6842F400720A6000212022016380F878
:104580003D2090F83E2080F83E10402A08BFFDF7FD
:104590002DBDFDF727BD00BF2029E4D001684A6882
:1045A00022F4E0624A6011210163002180F83E108C
:1045B000202180F83D10FDF715BD000090F83D105A
:1045C00090F83EC0C26A038D002B08BF212919D084
:1045D000212905D0BCF1400F08BF222900D0704727
:1045E000418D69B390F83E10402908BF00F040B8F3
:1045F000416A026811F8013B13614162418D013942
:104600004185704712F5803F18BF082A1ED1016806
:104610004A6822F4E0624A600A6842F400720A6062
:1046200000212022016380F83D2090F83E2080F890
:104630003E10402A08BFFDF7D9BCFDF7D3BC00BF30
:104640000068416821F4806141607047202ADED013
:1046500001684A6822F4E0624A6011210163002186
:1046600080F83E10202180F83D10FDF7BBBC000013
:1046700090F83D10026D5AB1026D012A14D1016803
:10468000826CD2B20A61016D01310165704700BFD1
:10469000C26C816C012A15D10268C9B21161016D29
:1046A00002310165704700BF026D022A12D1222932
:1046B00018D101680A6842F480720A60016D013104
:1046C000016570470268C1F307211161016D013175
:1046D0000165704700684169090644BF0021016116
:1046E000704700BF428D5AB1212909D1416A026841
:1046F00011F8013B13614162418D013941857047D9
:10470000428D002A08BF2129EAD101684A6822F4B3
:10471000E0624A600A6842F400720A6000212022C6
:10472000016380F83D2080F83E10FDF75FBC00007B
:1047300010B584B041F21800C4F20200016840F6DE
:10474000004441F0080101600068C4F2010400F077
:104750000800009000984FF44070009003200390F0
:104760001120019069462046FCF798FE20464FF440
:1047700000710022FCF7A0FF20464FF48071012257
:10478000FCF79AFF20464FF400710122FCF794FFDA
:1047900004B010BD2DE9F04F83B040F60045C4F2DF
:1047A0000105019028464FF480710122FCF784FF37
:1047B00028464FF40071FCF779FF029028464FF429
:1047C00080710022FCF778FF28464FF480710122A7
:1047D000FCF772FF28464FF40071FCF767FF824632
:1047E00028464FF480710022FCF766FF28464FF4FC
:1047F00080710122FCF760FF28464FF40071FCF73E
:1048000055FF834628464FF480710022FCF754FF81
:1048100028464FF480710122FCF74EFF28464FF4E2
:104820000071FCF743FF044628464FF480710022D4
:10483000FCF742FF28464FF480710122FCF73CFF51
:1048400028464FF40071FCF731FF064628464FF426
:1048500080710022FCF730FF28464FF4807101225E
:10486000FCF72AFF28464FF40071FCF71FFF0746AC
:1048700028464FF480710022FCF71EFF28464FF4B3
:1048800080710122FCF718FF28464FF40071FCF7F5
:104890000DFF804628464FF480710022FCF70CFF84
:1048A00028464FF480710122FCF706FF28464FF49A
:1048B0000071FCF7FBFE814628464FF48071002210
:1048C000FCF7FAFE0198B8B128464FF400710022B7
:1048D000FCF7F2FE28464FF480710122FCF7ECFE53
:1048E00028464FF480710022FCF7E6FE28464FF47C
:1048F0000071012210E000BF28464FF40071012230
:10490000FCF7DAFE28464FF480710122FCF7D4FE52
:1049100028464FF480710022FCF7CEFE0298002852
:1049200018BF0120BAF1000F18BF4FF0010A4AEA80
:1049300040008000BBF1000F18BF4FF0010B40EAB0
:104940004B00002C18BF012420448000002E18BF0B
:10495000012640EA4600002F18BF01273844800096
:10496000B8F1000F18BF4FF0010840EA4800B9F154
:10497000000F18BF4FF001094844C0B203B0BDE8B2
:10498000F08F0000B0B540F60044C4F201040546C3
:10499000C20920464FF40071FCF78EFE20464FF40A
:1049A00080710122FCF788FE20464FF480710022BE
:1049B000FCF782FEC5F3801220464FF40071FCF72D
:1049C0007BFE20464FF480710122FCF775FE2046E5
:1049D0004FF480710022FCF76FFEC5F340122046B1
:1049E0004FF40071FCF768FE20464FF480710122FD
:1049F000FCF762FE20464FF480710022FCF75CFE5B
:104A0000C5F3001220464FF40071FCF755FE204616
:104A10004FF480710122FCF74FFE20464FF4807165
:104A20000022FCF749FEC5F3C00220464FF4007196
:104A3000FCF742FE20464FF480710122FCF73CFE59
:104A400020464FF480710022FCF736FEC5F3800249
:104A500020464FF40071FCF72FFE20464FF4807182
:104A60000122FCF729FE20464FF480710022FCF75A
:104A700023FEC5F3400220464FF40071FCF71CFEF4
:104A800020464FF480710122FCF716FE20464FF4B9
:104A900080710022FCF710FE05F0010220464FF461
:104AA0000071FCF709FE20464FF480710122FCF7EB
:104AB00003FE20464FF480710022FCF7FDFD2046E6
:104AC0004FF400710122BDE8B040FCF7F5BD0000D5
:104AD00010B540F60044C4F2010420464FF40071C2
:104AE0000122FCF7E9FD20464FF480710122FCF71A
:104AF000E3FD20464FF400710022FCF7DDFD204667
:104B00004FF480710022BDE81040FCF7D5BD0000D5
:104B100010B540F60044C4F2010420464FF4007181
:104B20000022FCF7C9FD20464FF480710122FCF7FA
:104B3000C3FD20464FF400710122BDE81040FCF790
:104B4000BBBD0000B0B540F60044C4F201042046ED
:104B50004FF400710122FCF7AFFD20464FF4807145
:104B60000122FCF7A9FD20464FF40071FCF79EFDE1
:104B70000546002820464FF480714FF0000218BF10
:104B80000125FCF799FD2846B0BD0000B0B586B000
:104B90000020CDE90400CDE9020041F21800C4F282
:104BA0000200016840F6000441F004010160016860
:104BB000C4F2010401F0040101910199016802AD00
:104BC00041F0080101600068294600F008000190EA
:104BD000019801200390032005904FF4704002904B
:104BE00004F58060FCF75AFC4FF480500290204698
:104BF0002946FCF753FC20464FF480510122FCF774
:104C00005BFD40F2F414C2F2000420460021FEF7DE
:104C10007DFC20460C21FEF779FC06B0B0BD0000FB
:104C2000B0B5012804D002280AD1402301E000BF1A
:104C3000342340F2F415C2F200052D6892B2EA5016
:104C400051B1012912D101281ED0022844D14FF4BC
:104C500000444FF480411BE0012829D0022818BFEE
:104C6000B0BD4FF400444FF4804125E040F60040D1
:104C7000C4F20100A0F580604FF480510022BDE82D
:104C8000B040FCF719BD00BF4FF400544FF4805101
:104C900040F60045C4F2010528460022FCF70CFD51
:104CA000284621460122BDE8B040FCF705BD00BF03
:104CB0004FF400544FF4805140F60045C4F2010512
:104CC00028460122FCF7F8FC284621460022BDE8D0
:104CD000B040FCF7F1BC00BFB0BD000010B5FFF75D
:104CE00027FD6B20802100F08FF86420FCF7B4FBD7
:104CF0006B20002100F088F81B20182100F084F8B8
:104D00001C20002100F080F81920132100F07CF80D
:104D10001A20042100F078F83820002100F074F8FF
:104D20006A20002100F070F82320002100F06CF8C8
:104D30003720802100F068F8FFF7CAFED020FFF787
:104D400021FEFFF7FFFE7520FFF71CFEFFF7FAFEBE
:104D5000FFF7BEFED120FFF715FEFFF7F3FE0020A0
:104D6000FFF718FD0446FFF7D3FE682C1CBF012097
:104D700010BD6B20012100F047F86C2000210024B9
:104D800000F042F81920132100F03EF81A20042107
:104D900000F03AF8204610BDF0B581B01C4615462B
:104DA0000E460746FFF794FE7F00F8B2FFF7EAFDD4
:104DB000FFF7C8FE30B10124FFF7AAFE204601B07C
:104DC000F0BD00BF3046FFF7DDFDFFF7BBFEFFF78C
:104DD0007FFE47F00100C0B2FFF7D4FDFFF7B2FE3F
:104DE00006E000BF0020FFF7D5FC04F8010B013DF1
:104DF000E8B20128F6D008B10120F4E70024FFF75B
:104E000087FE204601B0F0BDB0B50C460546FFF761
:104E10005FFED020FFF7B6FDFFF794FE20B1FFF74D
:104E200077FE0120B0BD00BF2846FFF7ABFDFFF7BE
:104E300089FE2046FFF7A6FDFFF784FE0446002802
:104E400018BF0124FFF764FE2046B0BDF0B581B065
:104E50001C4615460E460746FFF73AFE7800C0B2DC
:104E6000FFF790FDFFF76EFE30B10124FFF750FE13
:104E7000204601B0F0BD00BF3046FFF783FDFFF7CD
:104E800061FE4DB114F8010BFFF77CFDFFF75AFEF0
:104E90000028EAD1013DF5D10024FFF739FE204674
:104EA00001B0F0BDB0B584B040F2A40042F20041C0
:104EB000C2F20000C4F2010100244FF46022012577
:104EC00004730475C261C0E9001484600561FCF7D5
:104ED0004DF8002818BFFBF787FF40F2A400C2F28C
:104EE000000001A9CDE901450394FBF783FF0028E9
:104EF00018BFFBF779FF04B0B0BD000080B582B0E9
:104F000041F21400C4F202000168002241F00101E4
:104F100001600068002100F00100019001980C2060
:104F2000FDF736F90C20FDF721F90D2000210022B4
:104F3000FDF72EF90D20FDF719F9102000210022B0
:104F4000FDF726F9102002B0BDE88040FDF70EB94C
:104F50002DE9F04786B0002741F21800CDE904772B
:104F6000CDE90277C4F20200016840F6000A41F080
:104F7000040101600168C4F2010A01F00401019119
:104F800001990168002241F00801016000684FF4B6
:104F9000815100F008000190019850464FF481586B
:104FA000FCF78AFB0AF5806420464FF201010022DB
:104FB0004FF20109FCF780FB102002AECDE9020799
:104FC000504631460497FCF769FACDF808804FF057
:104FD0000108022550463146CDE903870595FCF7C7
:104FE0005DFA20463146CDE90298CDE90475FCF71B
:104FF00055FA202002900020C1F21100CDE90307EC
:1050000020463146FCF74AFA172000210022FDF71E
:10501000BFF81720FDF7AAF806B0BDE8F08700003A
:1050200080B540F2A01045F20041C2F20000C4F287
:10503000000148F2A06200234FF4804CC0F201024C
:1050400080E80E00C0E9033CC0E90533C0E907333E
:10505000FCF712FF002808BF80BDBDE88040FBF7C9
:10506000C3BE000070B59CB042F6004540F2F4109B
:10507000C4F201050021C2F200003F2240F2F31306
:1050800080261691CDE914111191CDE90F11CDE9CA
:105090000D11CDE90B11CDE90911CDE90711CDE9CC
:1050A0000511CDE90311CDE90111C0E90052C0E9B4
:1050B0000213C0E904118661FDF7AEFC002818BF99
:1050C000FBF792FE4FF48050139040F2F410C2F2BE
:1050D000000013A9FDF7A6FD002818BFFBF784FE0A
:1050E00040F2F410C2F20000FEF78EF9002818BF5B
:1050F000FBF77AFE40F2F4100024C2F2000010A97F
:10510000CDE91044FDF748FC002818BFFBF76CFE02
:105110006020CDE9090440F2F410C2F2000009A9B0
:105120000022CDE90B44CDE90D440F94FEF76AF857
:10513000002818BFFBF758FE40F2F410C2F200003E
:1051400009A90C22FEF75EF8002818BFFBF74CFEF9
:1051500040F2F4144FF40050C2F20004002606900E
:1051600001A920460596CDE90366CDE901660896BA
:10517000FDF7ECFB002818BFFBF736FE2068CDE9F1
:105180001A66A8421996189602D01CB070BD00BFCE
:1051900041F21800C4F20200016841F0040101600C
:1051A000006818A900F00400179017984FF41060D9
:1051B0001890022019901B90A5F51050FCF76EF97D
:1051C0001CB070BD80B586B040F23C200021C2F218
:1051D00000004FF080423F234FF47A7C0591CDE9E7
:1051E0000311CDE90011C0E90023C0E9021C0161EF
:1051F0008161FDF711FC002818BFFBF7F5FD4FF4A6
:105200008050029040F23C20C2F2000002A9FDF75B
:1052100009FD002818BFFBF7E7FD40F23C20C2F271
:1052200000006946FDF7B8FB002818BFFBF7DCFD5E
:1052300006B080BD80B58CB040F2842040F20042C0
:105240000021C2F20000C4F20002C0E90021802265
:105250004FF6FF7382610122CDE90011C0E902130C
:105260000161CDE90321CDE90521CDE90711CDE9A2
:1052700009210B9103A9FDF7A5FD002818BFFBF735
:10528000B3FD40F28420C2F200006946FDF784FBC2
:10529000002818BFFBF7A8FD0CB080BD80B58CB00E
:1052A00040F2CC2040F600020021C2F20000C4F21D
:1052B0000002C0E9002180224FF6FF7382610122C3
:1052C000CDE90011C0E902130161CDE90321CDE967
:1052D0000521CDE90711CDE909210B9103A9FDF7BE
:1052E00071FD002818BFFBF77FFD40F2CC20C2F211
:1052F00000006946FDF750FB002818BFFBF774FD5E
:105300000CB080BD80B540F2143043F60001C2F20B
:105310000000C4F2010100234FF00C0C4FF4E13205
:1053200080E80E00C0E90333C0E905C3C361FEF79E
:1053300033FC002808BF80BDBDE88040FBF754BDAA
:1053400080B540F25C3044F20041C2F20000C4F289
:10535000000100234FF00C0C4FF4E13280E80E0006
:10536000C0E90333C0E905C3C361FEF715FC00289B
:1053700008BF80BDBDE88040FBF736BD80B540F278
:10538000A43044F60001C2F20000C4F20001002380
:105390004FF00C0C4FF4E13280E80E00C0E903330B
:1053A000C0E905C3C361FEF7F7FB002808BF80BD55
:1053B000BDE88040FBF718BDFEE70000FEE70000F7
:1053C0007047000070470000FCF768BE704700009F
:1053D00040F2F410C2F20000FDF76ABE40F2F41091
:1053E000C2F20000FDF764BE40F2F410C2F2000009
:1053F000FDF75EBE40F2F410C2F20000FDF758BEA9
:1054000040F23C20C2F20000FDF752BE40F2CC2038
:10541000C2F20000FDF74CBE406A0021C185C18484
:10542000FEF700B981B090F84210222921D183689B
:105430000246B3F5805F09D152F8281F52F8183C94
:10544000002B63D003685B680AE000BF52F8281F96
:1054500013B90369002BF5D003685B6803F07F0381
:105460000B70116801311160C18D01390A04C185C9
:1054700002D001B0704700BF0168CA6822F0200264
:10548000CA60CA6822F48072CA604A6922F00102C6
:105490004A61202180F8421000214163026B012AF9
:1054A0003CD10163016851E8031F026821F010013B
:1054B00042E80313DBB1016851E8031F026821F0E1
:1054C000100142E8031393B1016851E8031F026819
:1054D00021F0100142E803134BB1016851E8031FAA
:1054E000026821F0100142E80313002BDAD10168B1
:1054F0000A68D20606D5002200920A68009249681E
:1055000000910099818D01B0FEF78AB80268526857
:105510006FF35F2221F8022B8162A5E701B0FEF74D
:10552000B7BC000040F21430C2F20000FEF77CB8B5
:1055300040F25C30C2F20000FEF776B840F2A430D0
:10554000C2F20000FEF770B8FEE70000F0B587B0C9
:1055500004464CF60220C0F6E3100DF10605CDF826
:105560000600682004212A4602F0FCFB14F04001EA
:105570004FF0A3006FF03F018DF8060008BF6FF0F9
:105580005C016FF037026FF03D0308BF6FF05C0203
:1055900008BF6FF05C038DF8071014F4C0716FF052
:1055A0003B018DF808208DF8093008BF6FF05C01D1
:1055B0006FF033026FF0390308BF6FF05C0208BF71
:1055C0006FF05C038DF80A104AF2A3318DF80B20BE
:1055D000ADF80D108DF80F0040F6A7200A212A46DD
:1055E0008DF80C3002F0BEFB2020A60708BF6FF03C
:1055F00027008DF8060040F6B62001212A4602F069
:10560000B1FBA0060CD4C720069048F6B000CCF23F
:10561000C35005904AF6B820CAF6AA200BE000BF96
:105620005D20069049F6B400C3F20D5005904AF68D
:10563000B820C8F6B350049004AA4FF4976009212B
:1056400002F090FB14F4C07F25D06FF04D016FF095
:10565000740214F4807008BF6FF04F0108BF6FF040
:105660007F026FF049036FF0640508BF6FF04B03D2
:10567000002808BF6FF06F058DF806108DF8072021
:105680000DF1060240F6A22004218DF808308DF8B5
:10569000095002F067FBE00708D1D8208DF806001A
:1056A0000DF106024FF40B60012150E0F8208DF857
:1056B00006000DF106024FF40B60012102F052FBCF
:1056C0000720FA2100F0F6FA3F208DF8100004AA16
:1056D0004FF4A470012102F045FB00208DF810006A
:1056E00004AA40F24F10012102F03CFB4FF4A050FD
:1056F000ADF8100004AA4FF4EF70022102F032FB63
:105700004FF4C840ADF8100004AA4FF4ED70022128
:1057100002F028FB48F60060C9F2F900049004AAE0
:105720004FF4AE70042102F01DFB4FF40060ADF8A1
:10573000100004AA4FF4AD70022102F013FB4FF4E5
:105740000070ADF8100004AA4FF4AC70022102F012
:1057500009FB6FF02600002E58BF6FF027008DF870
:1057600006000DF1060240F23D70012102F0FAFA46
:10577000600752BF4FF08B304CF2C020CCF2C460B7
:10578000049004AA40F69820042102F0EBFA01F0FC
:10579000FDFAE00652BF4FF0A33042F62000C3F6F8
:1057A0003000049004AA40F69E20042102F0DAFAA8
:1057B00001F0ECFA40F2600744F00800C2F2000782
:1057C0006506B88001F0E2FA062000EAE57114F4FB
:1057D000C07F18BF063114F0140F18BF1031002E0F
:1057E00018BF04310020397007B0F0BD49F29801AC
:1057F000C0F6000140F6F6304FF48062C82301F095
:10580000ABB800002DE9F04F89B040F260091446B2
:10581000DDE912B2C2F200090F468046002199F874
:1058200000000DF1040AABF8001051461E4601F0CD
:105830004DFA28B14FF0FF3009B0BDE8F08F00BF3E
:10584000B9F804C01CF0140F50D09DF80520B646DE
:105850009DF80410BDF8066012049DF8095042EA54
:10586000016132BA9DF8083041EA1242BDF80A607F
:1058700022602A0442EA036233BA42EA13436360B5
:105880009DF80D309DF80C60BDF80E501B0443EAE6
:1058900006632EBA43EA16461214A6609DF81160FC
:1058A000091452439DF8105001FB012136041A14CB
:1058B00046EA056602FB02113214BDF8120002FB33
:1058C000021100BA01F1714146EA1040B1F1007FC6
:1058D000E06069D8BBF80000102140F48070764683
:1058E000ABF800005FEA4C6004D420E000215FEADE
:1058F0004C601CD50AEB01001AF8012043783446AD
:105900008678C57890F804E0407943EA02223A802C
:1059100045EA062240EA0E207A80B880BBF80000F3
:10592000264641F0060140F00800ABF800001CF4E8
:10593000C07F18D03AF801000AEB010200BA538880
:10594000000CA8F8000018BA9288000CA8F8020011
:1059500010BA000CA8F80400BBF80000063140F0B3
:105960007000ABF800005FEA8C7016D00AEB0105FE
:105970006878EC78C10709D0D9F8082032B104F072
:105980000700411CC4F3C20090476878000704D5A3
:10599000D9F80C1009B1A0098847304600F0FCFC8A
:1059A000002009B0BDE8F08F01F0F0F90020ABF85D
:1059B00000004FF0FF3009B0BDE8F08F10B584B0A3
:1059C00004460DF1020000F0C5FE40F29C00C2F258
:1059D00000000088BDF802C000F00302430754F83D
:1059E00022204FF00C0348BF524203EA50038106C5
:1059F000E358C0F3811148BF5B4254F82110C00541
:105A000048BF49424FEACC3080FB02C480FB03E22E
:105A100080FB01014FEA9C73800F43EA840C4FEA3C
:105A20009E7340EA810EA00D8DF80400A00B8DF846
:105A30000500A0098DF80600900D8DF80800900B68
:105A40008DF8090090098DF80A00880D8DF80C007A
:105A5000880B8DF80D00880943EA82038DF80E004B
:105A600001AA4FF425700C218DF807C08DF80B307A
:105A70008DF80FE002F076F904B010BD10B586B0D5
:105A80004AF6BB71CDF6DF7105914FF2AA11CDF642
:105A9000DF7104914FF2FE21CCF2AB41C828039193
:105AA00018D80446C0B2C821B1FBF0F0002101387B
:105AB0008DF804108DF8050001AA40F2162002218D
:105AC00002F050F930B903AA40F6C1200C2102F0CF
:105AD00049F918B14FF0FF3006B010BD40F2A000F8
